{"abi":[{"type":"constructor","inputs":[{"name":"_usdc","type":"address","internalType":"address"}],"stateMutability":"nonpayable"},{"type":"function","name":"feePercent","inputs":[],"outputs":[{"name":"","type":"uint256","internalType":"uint256"}],"stateMutability":"view"},{"type":"function","name":"owner","inputs":[],"outputs":[{"name":"","type":"address","internalType":"address"}],"stateMutability":"view"},{"type":"function","name":"processPayment","inputs":[{"name":"developer","type":"address","internalType":"address"},{"name":"amount","type":"uint256","internalType":"uint256"}],"outputs":[],"stateMutability":"nonpayable"},{"type":"function","name":"usdc","inputs":[],"outputs":[{"name":"","type":"address","internalType":"contract IERC20"}],"stateMutability":"view"}],"bytecode":{"object":"0x60806040526002600155348015610014575f80fd5b506040516108b03803806108b083398181016040528101906100369190610119565b335f806101000a81548173ffffffffffffffffffffffffffffffffffffffff021916908373ffffffffffffffffffffffffffffffffffffffff1602179055508060025f6101000a81548173ffffffffffffffffffffffffffffffffffffffff021916908373ffffffffffffffffffffffffffffffffffffffff16021790555050610144565b5f80fd5b5f73ffffffffffffffffffffffffffffffffffffffff82169050919050565b5f6100e8826100bf565b9050919050565b6100f8816100de565b8114610102575f80fd5b50565b5f81519050610113816100ef565b92915050565b5f6020828403121561012e5761012d6100bb565b5b5f61013b84828501610105565b91505092915050565b61075f806101515f395ff3fe608060405234801561000f575f80fd5b506004361061004a575f3560e01c80630b63fe951461004e5780633e413bee1461006a5780637fd6f15c146100885780638da5cb5b146100a6575b5f80fd5b6100686004803603810190610063919061038d565b6100c4565b005b6100726102ae565b60405161007f9190610426565b60405180910390f35b6100906102d3565b60405161009d919061044e565b60405180910390f35b6100ae6102d9565b6040516100bb9190610476565b60405180910390f35b5f6064600154836100d591906104bc565b6100df919061052a565b90505f81836100ee919061055a565b905060025f9054906101000a900473ffffffffffffffffffffffffffffffffffffffff1673ffffffffffffffffffffffffffffffffffffffff166323b872dd3330866040518463ffffffff1660e01b815260040161014e9392919061058d565b6020604051808303815f875af115801561016a573d5f803e3d5ffd5b505050506040513d601f19601f8201168201806040525081019061018e91906105f7565b6101cd576040517f08c379a00000000000000000000000000000000000000000000000000000000081526004016101c49061067c565b60405180910390fd5b60025f9054906101000a900473ffffffffffffffffffffffffffffffffffffffff1673ffffffffffffffffffffffffffffffffffffffff1663a9059cbb85836040518363ffffffff1660e01b815260040161022992919061069a565b6020604051808303815f875af1158015610245573d5f803e3d5ffd5b505050506040513d601f19601f8201168201806040525081019061026991906105f7565b6102a8576040517f08c379a000000000000000000000000000000000000000000000000000000000815260040161029f9061070b565b60405180910390fd5b50505050565b60025f9054906101000a900473ffffffffffffffffffffffffffffffffffffffff1681565b60015481565b5f8054906101000a900473ffffffffffffffffffffffffffffffffffffffff1681565b5f80fd5b5f73ffffffffffffffffffffffffffffffffffffffff82169050919050565b5f61032982610300565b9050919050565b6103398161031f565b8114610343575f80fd5b50565b5f8135905061035481610330565b92915050565b5f819050919050565b61036c8161035a565b8114610376575f80fd5b50565b5f8135905061038781610363565b92915050565b5f80604083850312156103a3576103a26102fc565b5b5f6103b085828601610346565b92505060206103c185828601610379565b9150509250929050565b5f819050919050565b5f6103ee6103e96103e484610300565b6103cb565b610300565b9050919050565b5f6103ff826103d4565b9050919050565b5f610410826103f5565b9050919050565b61042081610406565b82525050565b5f6020820190506104395f830184610417565b92915050565b6104488161035a565b82525050565b5f6020820190506104615f83018461043f565b92915050565b6104708161031f565b82525050565b5f6020820190506104895f830184610467565b92915050565b7f4e487b71000000000000000000000000000000000000000000000000000000005f52601160045260245ffd5b5f6104c68261035a565b91506104d18361035a565b92508282026104df8161035a565b915082820484148315176104f6576104f561048f565b5b5092915050565b7f4e487b71000000000000000000000000000000000000000000000000000000005f52601260045260245ffd5b5f6105348261035a565b915061053f8361035a565b92508261054f5761054e6104fd565b5b828204905092915050565b5f6105648261035a565b915061056f8361035a565b92508282039050818111156105875761058661048f565b5b92915050565b5f6060820190506105a05f830186610467565b6105ad6020830185610467565b6105ba604083018461043f565b949350505050565b5f8115159050919050565b6105d6816105c2565b81146105e0575f80fd5b50565b5f815190506105f1816105cd565b92915050565b5f6020828403121561060c5761060b6102fc565b5b5f610619848285016105e3565b91505092915050565b5f82825260208201905092915050565b7f466565207472616e73666572206661696c6564000000000000000000000000005f82015250565b5f610666601383610622565b915061067182610632565b602082019050919050565b5f6020820190508181035f8301526106938161065a565b9050919050565b5f6040820190506106ad5f830185610467565b6106ba602083018461043f565b9392505050565b7f5061796f7574206661696c6564000000000000000000000000000000000000005f82015250565b5f6106f5600d83610622565b9150610700826106c1565b602082019050919050565b5f6020820190508181035f830152610722816106e9565b905091905056fea26469706673582212207db8f90a40771d5aa8e1cb67a539c16068b563e1b6b269523deec4de53799d8464736f6c63430008180033","linkReferences":{}},"methodIdentifiers":{"feePercent()":"7fd6f15c","owner()":"8da5cb5b","processPayment(address,uint256)":"0b63fe95","usdc()":"3e413bee"},"id":0}