{"abi":[{"type":"function","name":"createSubdomain","inputs":[{"name":"label","type":"string","internalType":"string"},{"name":"wallet","type":"address","internalType":"address"}],"outputs":[],"stateMutability":"nonpayable"},{"type":"function","name":"getSubdomain","inputs":[{"name":"wallet","type":"address","internalType":"address"}],"outputs":[{"name":"","type":"string","internalType":"string"}],"stateMutability":"view"},{"type":"function","name":"getWallet","inputs":[{"name":"label","type":"string","internalType":"string"}],"outputs":[{"name":"","type":"address","internalType":"address"}],"stateMutability":"view"}],"bytecode":{"object":"0x608060405234801561000f575f80fd5b50610a1a8061001d5f395ff3fe608060405234801561000f575f80fd5b506004361061003f575f3560e01c806310a2cbe21461004357806318dc373d1461005f578063a4e2df661461008f575b5f80fd5b61005d600480360381019061005891906104cc565b6100bf565b005b61007960048036038101906100749190610526565b610213565b60405161008691906105cb565b60405180910390f35b6100a960048036038101906100a491906105eb565b6102e0565b6040516100b69190610641565b60405180910390f35b5f73ffffffffffffffffffffffffffffffffffffffff165f836040516100e59190610694565b90815260200160405180910390205f9054906101000a900473ffffffffffffffffffffffffffffffffffffffff1673ffffffffffffffffffffffffffffffffffffffff1614610169576040517f08c379a0000000000000000000000000000000000000000000000000000000008152600401610160906106f4565b60405180910390fd5b805f836040516101799190610694565b90815260200160405180910390205f6101000a81548173ffffffffffffffffffffffffffffffffffffffff021916908373ffffffffffffffffffffffffffffffffffffffff1602179055508160015f8373ffffffffffffffffffffffffffffffffffffffff1673ffffffffffffffffffffffffffffffffffffffff1681526020019081526020015f20908161020e9190610915565b505050565b606060015f8373ffffffffffffffffffffffffffffffffffffffff1673ffffffffffffffffffffffffffffffffffffffff1681526020019081526020015f20805461025d9061073f565b80601f01602080910402602001604051908101604052809291908181526020018280546102899061073f565b80156102d45780601f106102ab576101008083540402835291602001916102d4565b820191905f5260205f20905b8154815290600101906020018083116102b757829003601f168201915b50505050509050919050565b5f80826040516102f09190610694565b90815260200160405180910390205f9054906101000a900473ffffffffffffffffffffffffffffffffffffffff169050919050565b5f604051905090565b5f80fd5b5f80fd5b5f80fd5b5f80fd5b5f601f19601f8301169050919050565b7f4e487b71000000000000000000000000000000000000000000000000000000005f52604160045260245ffd5b6103848261033e565b810181811067ffffffffffffffff821117156103a3576103a261034e565b5b80604052505050565b5f6103b5610325565b90506103c1828261037b565b919050565b5f67ffffffffffffffff8211156103e0576103df61034e565b5b6103e98261033e565b9050602081019050919050565b828183375f83830152505050565b5f610416610411846103c6565b6103ac565b9050828152602081018484840111156104325761043161033a565b5b61043d8482856103f6565b509392505050565b5f82601f83011261045957610458610336565b5b8135610469848260208601610404565b91505092915050565b5f73ffffffffffffffffffffffffffffffffffffffff82169050919050565b5f61049b82610472565b9050919050565b6104ab81610491565b81146104b5575f80fd5b50565b5f813590506104c6816104a2565b92915050565b5f80604083850312156104e2576104e161032e565b5b5f83013567ffffffffffffffff8111156104ff576104fe610332565b5b61050b85828601610445565b925050602061051c858286016104b8565b9150509250929050565b5f6020828403121561053b5761053a61032e565b5b5f610548848285016104b8565b91505092915050565b5f81519050919050565b5f82825260208201905092915050565b5f5b8381101561058857808201518184015260208101905061056d565b5f8484015250505050565b5f61059d82610551565b6105a7818561055b565b93506105b781856020860161056b565b6105c08161033e565b840191505092915050565b5f6020820190508181035f8301526105e38184610593565b905092915050565b5f60208284031215610600576105ff61032e565b5b5f82013567ffffffffffffffff81111561061d5761061c610332565b5b61062984828501610445565b91505092915050565b61063b81610491565b82525050565b5f6020820190506106545f830184610632565b92915050565b5f81905092915050565b5f61066e82610551565b610678818561065a565b935061068881856020860161056b565b80840191505092915050565b5f61069f8284610664565b915081905092915050565b7f4c6162656c2074616b656e0000000000000000000000000000000000000000005f82015250565b5f6106de600b8361055b565b91506106e9826106aa565b602082019050919050565b5f6020820190508181035f83015261070b816106d2565b9050919050565b7f4e487b71000000000000000000000000000000000000000000000000000000005f52602260045260245ffd5b5f600282049050600182168061075657607f821691505b60208210810361076957610768610712565b5b50919050565b5f819050815f5260205f209050919050565b5f6020601f8301049050919050565b5f82821b905092915050565b5f600883026107cb7fffffffffffffffffffffffffffffffffffffffffffffffffffffffffffffffff82610790565b6107d58683610790565b95508019841693508086168417925050509392505050565b5f819050919050565b5f819050919050565b5f61081961081461080f846107ed565b6107f6565b6107ed565b9050919050565b5f819050919050565b610832836107ff565b61084661083e82610820565b84845461079c565b825550505050565b5f90565b61085a61084e565b610865818484610829565b505050565b5b818110156108885761087d5f82610852565b60018101905061086b565b5050565b601f8211156108cd5761089e8161076f565b6108a784610781565b810160208510156108b6578190505b6108ca6108c285610781565b83018261086a565b50505b505050565b5f82821c905092915050565b5f6108ed5f19846008026108d2565b1980831691505092915050565b5f61090583836108de565b9150826002028217905092915050565b61091e82610551565b67ffffffffffffffff8111156109375761093661034e565b5b610941825461073f565b61094c82828561088c565b5f60209050601f83116001811461097d575f841561096b578287015190505b61097585826108fa565b8655506109dc565b601f19841661098b8661076f565b5f5b828110156109b25784890151825560018201915060208501945060208101905061098d565b868310156109cf57848901516109cb601f8916826108de565b8355505b6001600288020188555050505b50505050505056fea26469706673582212206be6e9a55a5068bff632c76b3083526d3fdfaa2a074691696761829d76fcb80064736f6c63430008180033","linkReferences":{}},"methodIdentifiers":{"createSubdomain(string,address)":"10a2cbe2","getSubdomain(address)":"18dc373d","getWallet(string)":"a4e2df66"},"id":22}